00COTAHIST.2026 BOVESPA  20260225                                                                                                                                                                                                                    
01202602250200PETR4       010PETROBRAS   PN      N1   R$  0000000003520000000003650000000003480000000003560000000003580000000003570000000003590034561000000000150000000000000005376000000000000000000000000000000000000000BRPETRACNPR6180
01202602250200VALE3       010VALE        ON      NM   R$  0000000006150000000006300000000006100000000006200000000006200000000006180000000006250025430000000000120000000000000007440000000000000000000000000000000000000000BRVALEACNOR0180
01202602250200ITUB4       010ITAUUNIBANCOPN      N1   R$  0000000002950000000003050000000002920000000002980000000003000000000002990000000003010045670000000000180000000000000005400000000000000000000000000000000000000000BRITUBACNPR1180
01202602250200BBDC4       010BRADESCO    PN      N1   R$  0000000001480000000001550000000001460000000001500000000001500000000001490000000001520056780000000000250000000000000003750000000000000000000000000000000000000000BRBBDCACNPR2180
01202602250200WEGE3       010WEG         ON      NM   R$  0000000003950000000004050000000003900000000003980000000004000000000003970000000004020023450000000000100000000000000004000000000000000000000000000000000000000000BRWEGEACNOR6180
01202602250200ABEV3       010AMBEV       ON      NM   R$  0000000001380000000001420000000001360000000001400000000001400000000001390000000001410067890000000000300000000000000004200000000000000000000000000000000000000000BRABEVACNOR1180
01202602250200RENT3       010LOCALIZA    ON      NM   R$  0000000004750000000004850000000004700000000004800000000004800000000004780000000004820015670000000000080000000000000003840000000000000000000000000000000000000000BRRENTACNOR4180
01202602259600PETR4F      020PETROBRAS   PN      N1   R$  0000000003520000000003650000000003480000000003560000000003580000000003570000000003590001234000000000005000000000000000179000000000000000000000000000000000000000BRPETRACNPR6180
01202602259600VALE3F      020VALE        ON      NM   R$  0000000006150000000006300000000006100000000006200000000006200000000006180000000006250000567000000000002000000000000000124000000000000000000000000000000000000000BRVALEACNOR0180
99COTAHIST.2026 BOVESPA  2026022500000010                                                                                                                                                                                                        
